:4000000080673030303030307e3030307e3030307e3030307e3030307e3030307e3030307e3030307e3030307e3030307e3030307e3030307e3030307e3030307e303030f5
:4000400030303030303030303030303030303030303030303030303030303030303030307e3030307e303030711062e38770ef62e33841fefb50024e62e33855f80055f949
:4000800000711062e00270ef62e338627105627505627905627d057c028d50005500023c0002a0053f008ff8500157505500003c0000a00b08283f00187509008ff2711091
:4000c00070ef62e000711062e00070ef62e2007c03da8fff50107f303030303030303030303030303030303030303030303030303030303030303030303030303030303083
:4001000030303030303030303030303030303030303030303030303030303030303030303030303030303030303030303030303030303030303030303030303030303030bf
:400140003030303030303030303030303030303070ef62602862660062630562650062e60062e70062d60062b00062b10062b20062b33362b43362b50062b60062b855624a
:40018000b90062ba1062bb3362bc3362bd0062be00711062610062690062600062620062673362683362630062660062d10062d30062d00062d20062e1ff62e20062dfffcb
:4001c00062de0262dd0070ef70ef62000071106200ff62010070ef620300620200711062020062030070ef62010062040071106204006205ff70ef6207ff62060071106220
:40020000060062070070ef62050062080071106208006209ff70ef620bff620a007110620a00620b0070ef620900620c007110620c00620dff70ef620fff620e0071106282
:400240000e00620f0070ef620d0062100071106210006211ff70ef6213ff621200711062120062130070ef621100621400711062140062150f70ef62170f621600711062a2
:40028000160062170070ef62150070ef7f5501007c02947f7c015070ef7f5001800350002900a0062e0180800426017f510160007f360180510160007f51012180a003509e
:4002c000017f5001800350002900a0062e014080042601bf510160007f360140510160007f51012140a00350017f5001800350002900a0062e012080042601df5101600035
:400300007f360120510160007f51012120a00350017f5001800350002900a0062e011080042601ef510160007f360110510160007f51012110a00350017f50018003500021
:400340002900a0062e010880042601f7510160007f360108510160007f51012108a00350017f5001800350002900a0062e010480042601fb510160007f360104510160005c
:400380007f51012104a00350017f5001800350002900a0062e010280042601fd510160007f360102510160007f51012102a00350017f5001800350002900a0062e010180e2
:4003c000042601fe510160007f360101510160007f51012101a00350017f104f3802560100560000107c03b67c038e7c03667c033e7c03167c02ee7c02c67c029e20811403
:400400001050017c03b82056010056000077010f000052011188520031801993cff01050007c03b850017c03902056010056000077010f000052011188520031801993cfc1
:40044000f01050007c039050017c03682056010056000077010f000052011188520031801993cff01050007c036850017c03402056010056000077010f000052011188524e
:400480000031801993cff01050007c034050017c03182056010056000077010f000052011188520031801993cff01050007c031850017c02f02056010056000077010f0061
:4004c0000052011188520031801993cff01050007c02f050017c02c82056010056000077010f000052011188520031801993cff01050007c02c850017c02a02056010056ad
:40050000000077010f000052011188520031801993cff08eec38fe208fff30303030303030303030303030303030303030303030303030303030303030303030303030305c
:40054000303030303030303030303030303030303030303030303030303030303030303030303030303030303030303030303030303030303030303030303030303030307b
:40058000303030303030303030303030303030303030303030303030303030303030303030303030303030303030303030303030303030303030303030303030303030303b
:4005c00030303030303030303030303030303030303030303030303030303030303030303030303030303030303030303030303030303030303030303030303030303030fb
:4006000030303030303030303030303030303030303030303030303030303030303030303030303030303030303030303030303030303030303030303030303030303030ba
:020000040010ea
:020000040020da
:0200000062fba1
:00000001ff
